:100000000C9462000C948A000C948A000C948A0070
:100010000C948A000C948A000C948A000C948A0038
:100020000C948A000C948A000C948A000C948A0028
:100030000C948A000C948A000C948A000C948A0018
:100040000C94D9030C948A000C9449040C94230456
:100050000C948A000C948A000C948A000C948A00F8
:100060000C947B040C948A000000000024002700FC
:100070002A0000000000250028002B0000000000DE
:1000800023002600290004040404040404040202DA
:100090000202020203030303030301020408102007
:1000A0004080010204081020010204081020000012
:1000B0000008000201000003040700000000000027
:1000C0000000A90511241FBECFEFD8E0DEBFCDBFD1
:1000D00011E0A0E0B1E0E2EBFDE002C005900D927E
:1000E000A432B107D9F722E0A4E2B1E001C01D9229
:1000F000AD36B207E1F710E0C2E6D0E004C02197C8
:10010000FE010E94CC06C136D107C9F70E94E20564
:100110000C94D7060C940000FC01538D448D252FC0
:1001200030E0842F90E0821B930B541710F0CF9691
:10013000089501970895FC01918D828D981761F0C3
:10014000828DDF01A80FB11D5D968C91928D9F5F0E
:100150009F73928F90E008958FEF9FEF0895FC01B9
:10016000918D828D981731F0828DE80FF11D858D6C
:1001700090E008958FEF9FEF0895FC01918D228DFF
:10018000892F90E0805C9F4F821B91098F73992784
:100190000895FC01848DDF01A80FB11DA35ABF4F44
:1001A0002C91848D90E001968F739927848FA68976
:1001B000B7892C93A089B1898C91837080648C93CA
:1001C000938D848D981306C00288F389E02D808179
:1001D0008F7D80830895EF92FF920F931F93CF93AB
:1001E000DF93EC0181E0888F9B8D8C8D981305C087
:1001F000E889F989808185FD26C0F62E0B8D10E0F7
:100200000F5F1F4F0F731127E02E8C8DE8120CC06B
:100210000FB607FCFACFE889F989808185FFF5CF11
:10022000CE010E94C900F1CF8B8DFE01E80FF11DB8
:10023000E35AFF4FF0829FB7F8940B8FEA89FB894E
:10024000808180620AC09FB7F894EE89FF8960833D
:10025000E889F98980818370806480839FBF81E011
:1002600090E0DF91CF911F910F91FF90EF90089553
:10027000CF93DF93EC01888D8823C9F0EA89FB894D
:10028000808185FD05C0A889B9898C9186FD0FC044
:100290000FB607FCF5CF808185FFF2CFA889B98919
:1002A0008C9185FFEDCFCE010E94C900E7CFDF9191
:1002B000CF91089584EC91E00E94BD0021E0892B4C
:1002C00009F420E0822F089580E090E0892B29F046
:1002D0000E945A0181110C9400000895833081F02E
:1002E00028F4813099F08230A1F008958730A9F088
:1002F0008830B9F08430D1F4809180008F7D03C0C4
:10030000809180008F7780938000089584B58F77E7
:1003100002C084B58F7D84BD08958091B0008F7731
:1003200003C08091B0008F7D8093B0000895CF937B
:10033000DF93282F30E0F901E255FF4F8491F90156
:10034000E656FF4FD491F901EA57FF4FC491CC23F1
:1003500091F081110E946E01EC2FF0E0EE0FFF1F73
:10036000E458FF4FA591B491EC91ED2381E090E02A
:1003700021F480E002C080E090E0DF91CF91089509
:100380001F93CF93DF93282F30E0F901E255FF4F01
:100390008491F901E656FF4FD491F901EA57FF4FD6
:1003A000C491CC23C1F0162F81110E946E01EC2F55
:1003B000F0E0EE0FFF1FEE58FF4FA591B4919FB7ED
:1003C000F894111104C08C91D095D82302C0EC91FF
:1003D000DE2BDC939FBFDF91CF911F910895CF93C8
:1003E000DF9390E0FC01E656FF4F2491FC01EA57B1
:1003F000FF4F8491882361F190E0880F991FFC01E1
:10040000E859FF4FC591D491FC01EE58FF4FA591DB
:10041000B491611109C09FB7F89488812095822317
:100420008883EC912E230BC0623061F49FB7F8945F
:100430008881322F309583238883EC912E2B2C9347
:100440009FBF06C08FB7F894E8812E2B28838FBFFB
:10045000DF91CF9108958E3008F08E5087708064C0
:1004600080937C0080917A00806480937A008091F0
:100470007A0086FDFCCF809178002091790090E091
:10048000922B08953FB7F8948091C0019091C101DB
:10049000A091C201B091C30126B5A89B05C02F3F12
:1004A00019F00196A11DB11D3FBFBA2FA92F982F9A
:1004B0008827820F911DA11DB11DBC01CD0142E015
:1004C000660F771F881F991F4A95D1F708958F925D
:1004D0009F92AF92BF92CF92DF92EF92FF920E94D3
:1004E00042024B015C0184E6C82ED12CE12CF12C98
:1004F0000E944202DC01CB0188199909AA09BB09B3
:10050000883E9340A105B10598F321E0C21AD108B5
:10051000E108F10888EE880E83E0981EA11CB11C4A
:10052000C114D104E104F10419F7FF90EF90DF90BA
:10053000CF90BF90AF909F908F900895CF92DF9211
:10054000EF92FF920F931F93CF93DF936C017A0189
:100550008B01C0E0D0E0CE15DF0581F0D8016D91B0
:100560008D01D601ED91FC910190F081E02DC60145
:100570000995892B11F02196EECF7E01C701DF91FD
:10058000CF911F910F91FF90EF90DF90CF90089542
:10059000E091B801F091B901309729F01092B301C0
:1005A0001092B20109940895CF93DF93AC01E091CA
:1005B000B601F091B7013097F1F09091B5018091BB
:1005C000B4019817C0F090E0292F30E026173707C4
:1005D00054F4D901A557BE4FEA01C20FD31F288199
:1005E0002C939F5FF1CF1092B5016093B401CB01C2
:1005F000DF91CF910994DF91CF9108950895E09113
:10060000B5018091B401E81730F4F0E0E557FE4FF2
:10061000808190E008958FEF9FEF08959091B5014C
:100620008091B401981750F4E92FF0E0E557FE4FA0
:10063000208130E09F5F9093B50102C02FEF3FEF24
:10064000C90108958091B40190E02091B501821B09
:1006500091090895089580E090E0089585ED8093D4
:10066000BC008091BC0084FDFCCF1092B1010895C4
:1006700040914401262F30E0240F311D21323105F5
:10068000DCF42091B1012430C9F4FC0180E090E059
:10069000861758F4309144012191DC01AC5DBE4FC6
:1006A000A30FB11D2C930196F3CF80914401680FE5
:1006B0006093440180E0089581E0089582E0089508
:1006C000CF93DF93CB01EA01642F0E943803CE0160
:1006D000DF91CF910895CF93DF931F92CDB7DEB70F
:1006E000698361E0CE0101960E94380381E090E0C9
:1006F0000F90DF91CF910895682F81E692E00C94DE
:100700006B03CF92DF92EF92FF920F931F93CF93E1
:10071000DF9389E10E942B026C018AE10E942B0287
:100720007C0188E10E942B028C0187E10E942B0250
:10073000EC01C60195958795959587950E947C0358
:10074000C70195958795959587950E947C03C8016B
:1007500095958795959587950E947C03CE019595F3
:10076000879595958795DF91CF911F910F91FF9078
:10077000EF90DF90CF900C947C03CF93C1E08091F9
:10078000B40190E02091B501821B91091816190659
:1007900064F481E692E00E940E03892B19F4109212
:1007A000BA01EDCFC093BA01EACFCF9108950E946C
:1007B000D2061F920F920FB60F9211242F933F93E0
:1007C0008F939F93AF93BF938091BC019091BD0194
:1007D000A091BE01B091BF013091BB0123E0230F76
:1007E0002D3720F40196A11DB11D05C026E8230F69
:1007F0000296A11DB11D2093BB018093BC01909373
:10080000BD01A093BE01B093BF018091C001909142
:10081000C101A091C201B091C3010196A11DB11DFA
:100820008093C0019093C101A093C201B093C30112
:10083000BF91AF919F918F913F912F910F900FBEDC
:100840000F901F9018951F920F920FB60F921124C0
:100850002F933F934F935F936F937F938F939F93C8
:10086000AF93BF93EF93FF9384EC91E00E94C90094
:10087000FF91EF91BF91AF919F918F917F916F9178
:100880005F914F913F912F910F900FBE0F901F904E
:1008900018951F920F920FB60F9211242F938F93DA
:1008A0009F93EF93FF93E091D401F091D501808164
:1008B000E091DA01F091DB0182FD12C0908180911C
:1008C000DD018F5F8F732091DE01821751F0E0917F
:1008D000DD01F0E0EC53FE4F958F8093DD0101C008
:1008E0008081FF91EF919F918F912F910F900FBE7B
:1008F0000F901F9018951F920F920FB60F92112410
:100900002F933F934F935F936F937F938F939F9317
:10091000AF93BF93EF93FF938091B900887F8036A8
:1009200009F49CC068F5883209F45BC090F480310A
:1009300009F454C038F4882309F4F6C0883009F467
:100940004DC0F6C0883109F44CC0803209F45DC056
:10095000EFC0803409F468C048F4803309F455C00E
:10096000883309F0E5C080936701D8C0803509F469
:100970004FC0883509F45DC0883409F0D9C0D6C0AD
:10098000883909F4C7C0A8F4883709F467C038F477
:10099000883609F463C0803709F460C0C9C088385C
:1009A00009F4B8C0803909F45FC0803809F0C0C0CC
:1009B0005BC0803B09F486C038F4803A09F466C015
:1009C000883A09F47FC0B4C0803C09F4A7C0883CD1
:1009D00009F4A4C0883B09F48AC0AAC080918A01A6
:1009E00010C09091890180918801981770F5E0916D
:1009F000890181E08E0F80938901F0E0E859FE4F74
:100A000080818093BB0085EC86C0809367018EC097
:100A1000E091890181E08E0F809389018091BB0074
:100A2000F0E0E859FE4F8083909189018091880120
:100A30006EC0E091890181E08E0F809389018091E1
:100A4000BB00F0E0E859FE4F80838091B001811136
:100A50006DC081E08093AF0184EA61C083E0809340
:100A6000B10110926601CFCF80916601803208F00B
:100A700051C0E091660181E08E0F80936601809104
:100A8000BB00F0E0EA5BFE4F8083BDCF85EC809336
:100A9000BC001092B10180916601803230F4E09187
:100AA0006601F0E0EA5BFE4F10826091660170E043
:100AB000E091AB01F091AC0186E491E009951092D0
:100AC000660136C084E08093B10110924501109216
:100AD0004401E091AD01F091AE010995809144018E
:100AE000811105C081E08093440110922401E091BE
:100AF000450181E08E0F80934501F0E0EC5DFE4FF3
:100B000080818093BB0090914501809144019817AA
:100B100008F479CF85E88093BC000AC085EC809307
:100B2000BC001092B10104C0109267010E942E0314
:100B3000FF91EF91BF91AF919F918F917F916F91B5
:100B40005F914F913F912F910F900FBE0F901F908B
:100B50001895E4ECF1E01382128288EE93E0A0E0B5
:100B6000B0E084839583A683B78324E031E03183AA
:100B7000208325EC30E03587248724EC30E037876C
:100B8000268720EC30E0318B208B21EC30E0338B5A
:100B9000228B22EC30E0358B248B26EC30E0378B37
:100BA000268B118E128E138E148EE1E6F2E01382E4
:100BB000128284839583A683B78386E191E0918333
:100BC00080830895789484B5826084BD84B5816003
:100BD00084BD85B5826085BD85B5816085BD809108
:100BE0006E00816080936E00109281008091810080
:100BF0008260809381008091810081608093810078
:100C0000809180008160809380008091B100846039
:100C10008093B1008091B00081608093B00080919A
:100C20007A00846080937A0080917A008260809359
:100C30007A0080917A00816080937A0080917A00B6
:100C4000806880937A001092C10060E08AE10E947F
:100C5000EF0160E087E10E94EF0160E089E10E941E
:100C6000EF0160E088E10E94EF0161E089E00E940D
:100C7000EF0161E080E20E94EF0161E08EE00E94FE
:100C8000EF0162E089E00E94EF0162E08AE00E94E9
:100C9000EF0162E08BE00E94EF0162E08CE00E94D5
:100CA000EF0189E00E9497016C018AE00E949701A0
:100CB0007C0189E00E9497018C0189E00E949701E4
:100CC000EC011092B5011092B4011092B301109290
:100CD000B2011092B10181E08093B0011092AF0196
:100CE00061E082E10E94C00161E083E10E94C001F5
:100CF0008091B9008E7F8093B9008091B9008D7F7B
:100D00008093B90088E48093B80085E48093BC00A8
:100D100088EC92E09093AE018093AD0184ED92E077
:100D20009093AC018093AB01CC0CDD1CEC0CFD1C52
:100D3000EE0CFF1C0E0D1F1D000F111FC00FD11F49
:100D4000C059DF4FCC0FC093BA008DEB93E0909366
:100D5000B7018093B60181E893E09093B901809345
:100D6000B8018091BA01882351F061E08EE00E94C1
:100D7000C00161E08EE00E94C0010E94670260E055
:100D80008EE00E94C00160E080E20E94C0010E94EB
:100D900067020E946401E5CFEE0FFF1F0590F491FA
:100DA000E02D099481E090E0F8940C94D706F89433
:020DB000FFCF73
:100DB20000000000EB009E028C003801BD009B0089
:100DC200AF00000000006B0360032B03FE0222034E
:040DD2000E03FF020B
:00000001FF
